{
  "contractName": "KIP7",
  "abi": [
    {
      "inputs": [
        {
          "internalType": "string",
          "name": "name_",
          "type": "string"
        },
        {
          "internalType": "string",
          "name": "symbol_",
          "type": "string"
        },
        {
          "internalType": "uint256",
          "name": "decimal_",
          "type": "uint256"
        }
      ],
      "stateMutability": "nonpayable",
      "type": "constructor"
    },
    {
      "anonymous": false,
      "inputs": [
        {
          "indexed": true,
          "internalType": "address",
          "name": "owner",
          "type": "address"
        },
        {
          "indexed": true,
          "internalType": "address",
          "name": "spender",
          "type": "address"
        },
        {
          "indexed": false,
          "internalType": "uint256",
          "name": "value",
          "type": "uint256"
        }
      ],
      "name": "Approval",
      "type": "event"
    },
    {
      "anonymous": false,
      "inputs": [
        {
          "indexed": true,
          "internalType": "address",
          "name": "from",
          "type": "address"
        },
        {
          "indexed": true,
          "internalType": "address",
          "name": "to",
          "type": "address"
        },
        {
          "indexed": false,
          "internalType": "uint256",
          "name": "value",
          "type": "uint256"
        }
      ],
      "name": "Transfer",
      "type": "event"
    },
    {
      "inputs": [],
      "name": "name",
      "outputs": [
        {
          "internalType": "string",
          "name": "",
          "type": "string"
        }
      ],
      "stateMutability": "view",
      "type": "function"
    },
    {
      "inputs": [],
      "name": "symbol",
      "outputs": [
        {
          "internalType": "string",
          "name": "",
          "type": "string"
        }
      ],
      "stateMutability": "view",
      "type": "function"
    },
    {
      "inputs": [],
      "name": "decimal",
      "outputs": [
        {
          "internalType": "uint256",
          "name": "",
          "type": "uint256"
        }
      ],
      "stateMutability": "view",
      "type": "function"
    },
    {
      "inputs": [],
      "name": "totalSupply",
      "outputs": [
        {
          "internalType": "uint256",
          "name": "",
          "type": "uint256"
        }
      ],
      "stateMutability": "view",
      "type": "function"
    },
    {
      "inputs": [
        {
          "internalType": "address",
          "name": "account",
          "type": "address"
        }
      ],
      "name": "balanceOf",
      "outputs": [
        {
          "internalType": "uint256",
          "name": "",
          "type": "uint256"
        }
      ],
      "stateMutability": "view",
      "type": "function"
    },
    {
      "inputs": [
        {
          "internalType": "address",
          "name": "owner",
          "type": "address"
        },
        {
          "internalType": "address",
          "name": "spender",
          "type": "address"
        }
      ],
      "name": "allownace",
      "outputs": [
        {
          "internalType": "uint256",
          "name": "",
          "type": "uint256"
        }
      ],
      "stateMutability": "view",
      "type": "function"
    },
    {
      "inputs": [
        {
          "internalType": "address",
          "name": "recipient",
          "type": "address"
        },
        {
          "internalType": "uint256",
          "name": "amount",
          "type": "uint256"
        }
      ],
      "name": "transfer",
      "outputs": [
        {
          "internalType": "bool",
          "name": "",
          "type": "bool"
        }
      ],
      "stateMutability": "nonpayable",
      "type": "function"
    },
    {
      "inputs": [
        {
          "internalType": "address",
          "name": "spender",
          "type": "address"
        },
        {
          "internalType": "uint256",
          "name": "amount",
          "type": "uint256"
        }
      ],
      "name": "approve",
      "outputs": [
        {
          "internalType": "bool",
          "name": "",
          "type": "bool"
        }
      ],
      "stateMutability": "nonpayable",
      "type": "function"
    },
    {
      "inputs": [
        {
          "internalType": "address",
          "name": "sender",
          "type": "address"
        },
        {
          "internalType": "address",
          "name": "recipient",
          "type": "address"
        },
        {
          "internalType": "uint256",
          "name": "amount",
          "type": "uint256"
        }
      ],
      "name": "trasferFrom",
      "outputs": [
        {
          "internalType": "bool",
          "name": "",
          "type": "bool"
        }
      ],
      "stateMutability": "nonpayable",
      "type": "function"
    }
  ],
  "bytecode": "0x608060405234801561001057600080fd5b506040516108483803806108488339818101604052606081101561003357600080fd5b810190808051604051939291908464010000000082111561005357600080fd5b90830190602082018581111561006857600080fd5b825164010000000081118282018810171561008257600080fd5b82525081516020918201929091019080838360005b838110156100af578181015183820152602001610097565b50505050905090810190601f1680156100dc5780820380516001836020036101000a031916815260200191505b50604052602001805160405193929190846401000000008211156100ff57600080fd5b90830190602082018581111561011457600080fd5b825164010000000081118282018810171561012e57600080fd5b82525081516020918201929091019080838360005b8381101561015b578181015183820152602001610143565b50505050905090810190601f1680156101885780820380516001836020036101000a031916815260200191505b5060405260209081015185519093506101a792506000918601906101c7565b5081516101bb9060019060208501906101c7565b506002555061025a9050565b828054600181600116156101000203166002900490600052602060002090601f016020900481019282601f1061020857805160ff1916838001178555610235565b82800160010185558215610235579182015b8281111561023557825182559160200191906001019061021a565b50610241929150610245565b5090565b5b808211156102415760008155600101610246565b6105df806102696000396000f3fe608060405234801561001057600080fd5b50600436106100935760003560e01c8063666b604111610066578063666b60411461019d57806370a08231146101d357806376809ce3146101f957806395d89b4114610201578063a9059cbb1461020957610093565b806306fdde0314610098578063095ea7b31461011557806318160ddd1461015557806348ab74801461016f575b600080fd5b6100a0610235565b6040805160208082528351818301528351919283929083019185019080838360005b838110156100da5781810151838201526020016100c2565b50505050905090810190601f1680156101075780820380516001836020036101000a031916815260200191505b509250505060405180910390f35b6101416004803603604081101561012b57600080fd5b506001600160a01b0381351690602001356102cb565b604080519115158252519081900360200190f35b61015d6102e2565b60408051918252519081900360200190f35b61015d6004803603604081101561018557600080fd5b506001600160a01b03813581169160200135166102e8565b610141600480360360608110156101b357600080fd5b506001600160a01b03813581169160208101359091169060400135610313565b61015d600480360360208110156101e957600080fd5b50356001600160a01b0316610369565b61015d610384565b6100a061038a565b6101416004803603604081101561021f57600080fd5b506001600160a01b0381351690602001356103ea565b60008054604080516020601f60026000196101006001881615020190951694909404938401819004810282018101909252828152606093909290918301828280156102c15780601f10610296576101008083540402835291602001916102c1565b820191906000526020600020905b8154815290600101906020018083116102a457829003601f168201915b5050505050905090565b60006102d83384846103f7565b5060015b92915050565b60055490565b6001600160a01b03918216600090815260046020908152604080832093909416825291909152205490565b600061032084848461047f565b6001600160a01b03841660009081526004602090815260408083203384529091529020548281101561035157600080fd5b61035e85338584036103f7565b506001949350505050565b6001600160a01b031660009081526003602052604090205490565b60025490565b60018054604080516020601f600260001961010087891615020190951694909404938401819004810282018101909252828152606093909290918301828280156102c15780601f10610296576101008083540402835291602001916102c1565b60006102d833848461047f565b6001600160a01b03831661040a57600080fd5b6001600160a01b03821661041d57600080fd5b6001600160a01b03808416600081815260046020908152604080832094871680845294825291829020859055815185815291517f8c5be1e5ebec7d5bd14f71427d1e84f3dd0314c0f7b2291e5b200ac8c7c3b9259281900390910190a3505050565b6001600160a01b03821661049257600080fd5b6001600160a01b0383166104a557600080fd5b6001600160a01b038316600090815260036020526040902054818110156104cb57600080fd5b6001600160a01b038085166000908152600360205260408082208585039055918516815220546104fb9083610558565b6001600160a01b0380851660008181526003602090815260409182902094909455805186815290519193928816927fddf252ad1be2c89b69c2b068fc378daa952ba7f163c4a11628f55a4df523b3ef92918290030190a350505050565b818101818110156102dc576040805162461bcd60e51b8152602060048201526016602482015275536166654d6174683a20416464204f766572666c6f7760501b604482015290519081900360640190fdfea26469706673582212200d7a0f592a07e67f6d57ff446c4dea5dd084df7c834a3689b262c795f3e8171464736f6c63430007000033",
  "immutableReferences": {},
  "source": "pragma solidity ^0.7.0;\n\nimport \"./libraries/SafeMath.sol\";\n\ncontract KIP7{\n    using SafeMath for uint256;\n\n    event Transfer(address indexed from, address indexed to, uint256 value);\n\n    /// @dev Emitted when the allowance of a `spender` for an `owner` is set by\n    /// a call to {approve}. `value` is the new allowance.\n    event Approval(address indexed owner, address indexed spender, uint256 value);\n\n    string private _name;\n    string private _symbol;\n    uint256 private _decimal;\n\n    mapping(address => uint256) private balances;\n    mapping(address => mapping(address => uint256)) private allowances;\n\n    uint256 internal _totalSupply;\n\n    constructor (string memory name_, string memory symbol_, uint256 decimal_) {\n        _name = name_;\n        _symbol = symbol_;\n        _decimal = decimal_;\n    }\n\n    function name() public view returns (string memory){\n        return _name;\n    }\n\n    function symbol() public view returns (string memory){\n        return _symbol;\n    }\n\n    function decimal() public view returns (uint256) {\n        return _decimal;\n    }\n\n    function totalSupply() public view returns(uint256){\n        return _totalSupply;\n    }\n\n    function balanceOf(address account) public view returns(uint256){\n        return balances[account];\n    }\n\n    function allownace(address owner, address spender) public view returns(uint256){\n        return allowances[owner][spender];\n    }\n\n    function transfer(address recipient, uint256 amount) external returns (bool){\n        _transfer(msg.sender, recipient, amount);\n        return true;\n    }\n\n    function approve(address spender, uint256 amount) external returns (bool){\n        _approve(msg.sender, spender, amount);\n        return true;\n    }\n\n    function trasferFrom(address sender, address recipient, uint256 amount) external returns(bool){\n        _transfer(sender, recipient, amount);\n\n        uint256 _allownace = allowances[sender][msg.sender];\n        require(_allownace >= amount);\n        _approve(sender, msg.sender, _allownace - amount);\n\n        return true;\n    }\n\n    function _approve(address owner, address spender, uint256 amount) internal{\n        require(owner != address(0));\n        require(spender != address(0));\n\n        allowances[owner][spender] = amount;\n        emit Approval(owner, spender, amount);\n    }\n\n    function _transfer(address from, address to, uint256 amount) internal{\n        require(to != address(0));\n        require(from != address(0));\n\n        uint256 senderBalance = balances[from];\n        require(senderBalance >= amount);\n        balances[from] = senderBalance - amount;\n\n        balances[to] = balances[to].add(amount);\n\n        emit Transfer(from, to, amount);\n    }\n\n    function _mint(address to, uint256 amount) internal {\n        require(to != address(0));\n\n        _totalSupply.add(amount);\n        balances[to].add(amount);\n        \n        emit Transfer(address(0), to, amount);\n    }\n\n}",
  "sourcePath": "/Users/user/Documents/GitHub/klaytnDeployTest/contracts/KIP7.sol",
  "compiler": {
    "name": "solc",
    "version": "0.7.0+commit.9e61f92b.Emscripten.clang"
  },
  "schemaVersion": "3.2.0",
  "updatedAt": "2021-11-01T05:46:21.739Z",
  "devdoc": {
    "events": {
      "Approval(address,address,uint256)": {
        "details": "Emitted when the allowance of a `spender` for an `owner` is set by a call to {approve}. `value` is the new allowance."
      }
    },
    "kind": "dev",
    "methods": {},
    "version": 1
  },
  "userdoc": {
    "kind": "user",
    "methods": {},
    "version": 1
  }
}